{
  "contractName": "JobPost",
  "abi": [
    {
      "inputs": [],
      "stateMutability": "nonpayable",
      "type": "constructor"
    },
    {
      "inputs": [],
      "name": "jobCounter",
      "outputs": [
        {
          "internalType": "uint256",
          "name": "",
          "type": "uint256"
        }
      ],
      "stateMutability": "view",
      "type": "function"
    },
    {
      "inputs": [
        {
          "internalType": "string",
          "name": "_jobTitle",
          "type": "string"
        },
        {
          "internalType": "string",
          "name": "_paymentMethod",
          "type": "string"
        },
        {
          "internalType": "string",
          "name": "_accountId",
          "type": "string"
        }
      ],
      "name": "newJobPostByAccount",
      "outputs": [],
      "stateMutability": "nonpayable",
      "type": "function"
    },
    {
      "inputs": [
        {
          "internalType": "address",
          "name": "_account",
          "type": "address"
        },
        {
          "internalType": "uint256",
          "name": "_jobId",
          "type": "uint256"
        }
      ],
      "name": "getOneJobPostByAccount2",
      "outputs": [
        {
          "internalType": "address",
          "name": "account",
          "type": "address"
        },
        {
          "internalType": "uint256",
          "name": "jobId",
          "type": "uint256"
        },
        {
          "internalType": "string",
          "name": "jobTitle",
          "type": "string"
        },
        {
          "internalType": "string",
          "name": "paymentMethod",
          "type": "string"
        }
      ],
      "stateMutability": "view",
      "type": "function"
    },
    {
      "inputs": [
        {
          "internalType": "address",
          "name": "_account",
          "type": "address"
        },
        {
          "internalType": "uint256",
          "name": "_jobId",
          "type": "uint256"
        }
      ],
      "name": "getOneJobPostByAccount",
      "outputs": [
        {
          "components": [
            {
              "internalType": "uint256",
              "name": "jobId",
              "type": "uint256"
            },
            {
              "internalType": "string",
              "name": "jobTitle",
              "type": "string"
            },
            {
              "internalType": "string",
              "name": "paymentMethod",
              "type": "string"
            },
            {
              "internalType": "string",
              "name": "accountId",
              "type": "string"
            },
            {
              "internalType": "address",
              "name": "account",
              "type": "address"
            }
          ],
          "internalType": "struct JobPost.Job",
          "name": "job",
          "type": "tuple"
        }
      ],
      "stateMutability": "view",
      "type": "function"
    },
    {
      "inputs": [
        {
          "internalType": "uint256",
          "name": "_jobId",
          "type": "uint256"
        },
        {
          "internalType": "string",
          "name": "_jobTitle",
          "type": "string"
        },
        {
          "internalType": "string",
          "name": "_paymentMethod",
          "type": "string"
        },
        {
          "internalType": "address",
          "name": "_account",
          "type": "address"
        },
        {
          "internalType": "string",
          "name": "_accountId",
          "type": "string"
        }
      ],
      "name": "updateJobPostByAccount",
      "outputs": [],
      "stateMutability": "nonpayable",
      "type": "function"
    },
    {
      "inputs": [
        {
          "internalType": "address",
          "name": "_account",
          "type": "address"
        }
      ],
      "name": "getAllJobsByAccount",
      "outputs": [
        {
          "components": [
            {
              "internalType": "uint256",
              "name": "jobId",
              "type": "uint256"
            },
            {
              "internalType": "string",
              "name": "jobTitle",
              "type": "string"
            },
            {
              "internalType": "string",
              "name": "paymentMethod",
              "type": "string"
            },
            {
              "internalType": "string",
              "name": "accountId",
              "type": "string"
            },
            {
              "internalType": "address",
              "name": "account",
              "type": "address"
            }
          ],
          "internalType": "struct JobPost.Job[]",
          "name": "",
          "type": "tuple[]"
        }
      ],
      "stateMutability": "view",
      "type": "function"
    }
  ],
  "bytecode": "0x6080604052600060015534801561001557600080fd5b50611710806100256000396000f3fe608060405234801561001057600080fd5b50600436106100625760003560e01c80634a18d60f1461006757806350355d76146100835780636111f54e146100a15780636d34cc98146100bd578063ae7ea44a146100ed578063df794d561461011d575b600080fd5b610081600480360381019061007c9190610ffb565b610150565b005b61008b61034d565b60405161009891906110d9565b60405180910390f35b6100bb60048036038101906100b691906110f4565b610353565b005b6100d760048036038101906100d2919061119b565b6104c0565b6040516100e491906113b4565b60405180910390f35b610107600480360381019061010291906113d6565b6107c0565b604051610114919061149a565b60405180910390f35b610137600480360381019061013291906113d6565b610aab565b6040516101479493929190611515565b60405180910390f35b60008060008473ffffffffffffffffffffffffffffffffffffffff1673ffffffffffffffffffffffffffffffffffffffff16815260200190815260200160002090506001548611156101a157600080fd5b60008180549050116101e8576040517f08c379a00000000000000000000000000000000000000000000000000000000081526004016101df906115b4565b60405180910390fd5b60005b8180549050811015610344578682828154811061020b5761020a6115d4565b5b906000526020600020906005020160000154036103315785828281548110610236576102356115d4565b5b9060005260206000209060050201600101908051906020019061025a929190610d25565b508482828154811061026f5761026e6115d4565b5b90600052602060002090600502016002019080519060200190610293929190610d25565b50838282815481106102a8576102a76115d4565b5b906000526020600020906005020160040160006101000a81548173ffffffffffffffffffffffffffffffffffffffff021916908373ffffffffffffffffffffffffffffffffffffffff1602179055508282828154811061030b5761030a6115d4565b5b9060005260206000209060050201600301908051906020019061032f929190610d25565b505b808061033c90611632565b9150506101eb565b50505050505050565b60015481565b6001600081548092919061036690611632565b91905055506000803373ffffffffffffffffffffffffffffffffffffffff1673ffffffffffffffffffffffffffffffffffffffff1681526020019081526020016000206040518060a0016040528060015481526020018581526020018481526020018381526020013373ffffffffffffffffffffffffffffffffffffffff168152509080600181540180825580915050600190039060005260206000209060050201600090919091909150600082015181600001556020820151816001019080519060200190610437929190610d25565b506040820151816002019080519060200190610454929190610d25565b506060820151816003019080519060200190610471929190610d25565b5060808201518160040160006101000a81548173ffffffffffffffffffffffffffffffffffffffff021916908373ffffffffffffffffffffffffffffffffffffffff1602179055505050505050565b606060008060008473ffffffffffffffffffffffffffffffffffffffff1673ffffffffffffffffffffffffffffffffffffffff1681526020019081526020016000209050600081805490501161054b576040517f08c379a0000000000000000000000000000000000000000000000000000000008152600401610542906115b4565b60405180910390fd5b80805480602002602001604051908101604052809291908181526020016000905b828210156107b457838290600052602060002090600502016040518060a0016040529081600082015481526020016001820180546105a9906116a9565b80601f01602080910402602001604051908101604052809291908181526020018280546105d5906116a9565b80156106225780601f106105f757610100808354040283529160200191610622565b820191906000526020600020905b81548152906001019060200180831161060557829003601f168201915b5050505050815260200160028201805461063b906116a9565b80601f0160208091040260200160405190810160405280929190818152602001828054610667906116a9565b80156106b45780601f10610689576101008083540402835291602001916106b4565b820191906000526020600020905b81548152906001019060200180831161069757829003601f168201915b505050505081526020016003820180546106cd906116a9565b80601f01602080910402602001604051908101604052809291908181526020018280546106f9906116a9565b80156107465780601f1061071b57610100808354040283529160200191610746565b820191906000526020600020905b81548152906001019060200180831161072957829003601f168201915b505050505081526020016004820160009054906101000a900473ffffffffffffffffffffffffffffffffffffffff1673ffffffffffffffffffffffffffffffffffffffff1673ffffffffffffffffffffffffffffffffffffffff16815250508152602001906001019061056c565b50505050915050919050565b6107c8610dab565b60008060008573ffffffffffffffffffffffffffffffffffffffff1673ffffffffffffffffffffffffffffffffffffffff168152602001908152602001600020905060005b8180549050811015610aa2578382828154811061082d5761082c6115d4565b5b90600052602060002090600502016000015403610a8f57818181548110610857576108566115d4565b5b90600052602060002090600502016040518060a00160405290816000820154815260200160018201805461088a906116a9565b80601f01602080910402602001604051908101604052809291908181526020018280546108b6906116a9565b80156109035780601f106108d857610100808354040283529160200191610903565b820191906000526020600020905b8154815290600101906020018083116108e657829003601f168201915b5050505050815260200160028201805461091c906116a9565b80601f0160208091040260200160405190810160405280929190818152602001828054610948906116a9565b80156109955780601f1061096a57610100808354040283529160200191610995565b820191906000526020600020905b81548152906001019060200180831161097857829003601f168201915b505050505081526020016003820180546109ae906116a9565b80601f01602080910402602001604051908101604052809291908181526020018280546109da906116a9565b8015610a275780601f106109fc57610100808354040283529160200191610a27565b820191906000526020600020905b815481529060010190602001808311610a0a57829003601f168201915b505050505081526020016004820160009054906101000a900473ffffffffffffffffffffffffffffffffffffffff1673ffffffffffffffffffffffffffffffffffffffff1673ffffffffffffffffffffffffffffffffffffffff168152505092505050610aa5565b8080610a9a90611632565b91505061080d565b50505b92915050565b60008060608060008060008873ffffffffffffffffffffffffffffffffffffffff1673ffffffffffffffffffffffffffffffffffffffff168152602001908152602001600020905060005b8180549050811015610d195786828281548110610b1657610b156115d4565b5b90600052602060002090600502016000015403610d0657818181548110610b4057610b3f6115d4565b5b906000526020600020906005020160040160009054906101000a900473ffffffffffffffffffffffffffffffffffffffff16828281548110610b8557610b846115d4565b5b906000526020600020906005020160000154838381548110610baa57610ba96115d4565b5b9060005260206000209060050201600101848481548110610bce57610bcd6115d4565b5b9060005260206000209060050201600201818054610beb906116a9565b80601f0160208091040260200160405190810160405280929190818152602001828054610c17906116a9565b8015610c645780601f10610c3957610100808354040283529160200191610c64565b820191906000526020600020905b815481529060010190602001808311610c4757829003601f168201915b50505050509150808054610c77906116a9565b80601f0160208091040260200160405190810160405280929190818152602001828054610ca3906116a9565b8015610cf05780601f10610cc557610100808354040283529160200191610cf0565b820191906000526020600020905b815481529060010190602001808311610cd357829003601f168201915b5050505050905095509550955095505050610d1c565b8080610d1190611632565b915050610af6565b50505b92959194509250565b828054610d31906116a9565b90600052602060002090601f016020900481019282610d535760008555610d9a565b82601f10610d6c57805160ff1916838001178555610d9a565b82800160010185558215610d9a579182015b82811115610d99578251825591602001919060010190610d7e565b5b509050610da79190610df0565b5090565b6040518060a0016040528060008152602001606081526020016060815260200160608152602001600073ffffffffffffffffffffffffffffffffffffffff1681525090565b5b80821115610e09576000816000905550600101610df1565b5090565b6000604051905090565b600080fd5b600080fd5b6000819050919050565b610e3481610e21565b8114610e3f57600080fd5b50565b600081359050610e5181610e2b565b92915050565b600080fd5b600080fd5b6000601f19601f8301169050919050565b7f4e487b7100000000000000000000000000000000000000000000000000000000600052604160045260246000fd5b610eaa82610e61565b810181811067ffffffffffffffff82111715610ec957610ec8610e72565b5b80604052505050565b6000610edc610e0d565b9050610ee88282610ea1565b919050565b600067ffffffffffffffff821115610f0857610f07610e72565b5b610f1182610e61565b9050602081019050919050565b82818337600083830152505050565b6000610f40610f3b84610eed565b610ed2565b905082815260208101848484011115610f5c57610f5b610e5c565b5b610f67848285610f1e565b509392505050565b600082601f830112610f8457610f83610e57565b5b8135610f94848260208601610f2d565b91505092915050565b600073ffffffffffffffffffffffffffffffffffffffff82169050919050565b6000610fc882610f9d565b9050919050565b610fd881610fbd565b8114610fe357600080fd5b50565b600081359050610ff581610fcf565b92915050565b600080600080600060a0868803121561101757611016610e17565b5b600061102588828901610e42565b955050602086013567ffffffffffffffff81111561104657611045610e1c565b5b61105288828901610f6f565b945050604086013567ffffffffffffffff81111561107357611072610e1c565b5b61107f88828901610f6f565b935050606061109088828901610fe6565b925050608086013567ffffffffffffffff8111156110b1576110b0610e1c565b5b6110bd88828901610f6f565b9150509295509295909350565b6110d381610e21565b82525050565b60006020820190506110ee60008301846110ca565b92915050565b60008060006060848603121561110d5761110c610e17565b5b600084013567ffffffffffffffff81111561112b5761112a610e1c565b5b61113786828701610f6f565b935050602084013567ffffffffffffffff81111561115857611157610e1c565b5b61116486828701610f6f565b925050604084013567ffffffffffffffff81111561118557611184610e1c565b5b61119186828701610f6f565b9150509250925092565b6000602082840312156111b1576111b0610e17565b5b60006111bf84828501610fe6565b91505092915050565b600081519050919050565b600082825260208201905092915050565b6000819050602082019050919050565b6111fd81610e21565b82525050565b600081519050919050565b600082825260208201905092915050565b60005b8381101561123d578082015181840152602081019050611222565b8381111561124c576000848401525b50505050565b600061125d82611203565b611267818561120e565b935061127781856020860161121f565b61128081610e61565b840191505092915050565b61129481610fbd565b82525050565b600060a0830160008301516112b260008601826111f4565b50602083015184820360208601526112ca8282611252565b915050604083015184820360408601526112e48282611252565b915050606083015184820360608601526112fe8282611252565b9150506080830151611313608086018261128b565b508091505092915050565b600061132a838361129a565b905092915050565b6000602082019050919050565b600061134a826111c8565b61135481856111d3565b935083602082028501611366856111e4565b8060005b858110156113a25784840389528151611383858261131e565b945061138e83611332565b925060208a0199505060018101905061136a565b50829750879550505050505092915050565b600060208201905081810360008301526113ce818461133f565b905092915050565b600080604083850312156113ed576113ec610e17565b5b60006113fb85828601610fe6565b925050602061140c85828601610e42565b9150509250929050565b600060a08301600083015161142e60008601826111f4565b50602083015184820360208601526114468282611252565b915050604083015184820360408601526114608282611252565b9150506060830151848203606086015261147a8282611252565b915050608083015161148f608086018261128b565b508091505092915050565b600060208201905081810360008301526114b48184611416565b905092915050565b6114c581610fbd565b82525050565b600082825260208201905092915050565b60006114e782611203565b6114f181856114cb565b935061150181856020860161121f565b61150a81610e61565b840191505092915050565b600060808201905061152a60008301876114bc565b61153760208301866110ca565b818103604083015261154981856114dc565b9050818103606083015261155d81846114dc565b905095945050505050565b7f4e6f204a6f6220706f73742065786973747320666f7220746869732075736572600082015250565b600061159e6020836114cb565b91506115a982611568565b602082019050919050565b600060208201905081810360008301526115cd81611591565b9050919050565b7f4e487b7100000000000000000000000000000000000000000000000000000000600052603260045260246000fd5b7f4e487b7100000000000000000000000000000000000000000000000000000000600052601160045260246000fd5b600061163d82610e21565b91507fffffffffffffffffffffffffffffffffffffffffffffffffffffffffffffffff820361166f5761166e611603565b5b600182019050919050565b7f4e487b7100000000000000000000000000000000000000000000000000000000600052602260045260246000fd5b600060028204905060018216806116c157607f821691505b6020821081036116d4576116d361167a565b5b5091905056fea26469706673582212207d2d087a8504c5f2107c048c4284ef7b4f8f91b9ac225086486e6a79b00c327c64736f6c634300080d0033",
  "immutableReferences": {},
  "source": "// SPDX-License-Identifier: MIT\npragma solidity >=0.4.22 <0.9.0;\n\npragma experimental ABIEncoderV2;\n\ncontract JobPost {\n  struct Job{\n    uint256 jobId;\n    string jobTitle;\n    string paymentMethod;\n    string accountId;\n    address account;\n  }\n\n  enum paymentMethods{ CASH, DEBIT, CREDIT, CRYPTO }\n\n  // mapping(uint => Job) JobsByIndex;\n  mapping(address => Job[]) JobsByAccount;\n  uint256 public jobCounter = 0;\n\n  constructor() {\n  }\n\n  // function newJobPost(string memory _jobTitle, string memory _paymentMethod, address _account) public{\n  //   jobCounter++;\n  //   JobsByIndex[jobCounter] = Job(jobCounter, _jobTitle, _paymentMethod, _account);\n  // }\n  function newJobPostByAccount(string memory _jobTitle, string memory  _paymentMethod, string memory _accountId) public{\n    jobCounter++;\n    JobsByAccount[msg.sender].push(Job(jobCounter, _jobTitle, _paymentMethod, _accountId, msg.sender));\n  }\n\n  // function getOneJobPost(uint256 _jobId) public view returns (uint256 jobId,string memory jobTitle,string memory paymentMethod,address account){\n  //   require(_jobId <= jobCounter);\n  //   return (JobsByIndex[_jobId].jobId, JobsByIndex[_jobId].jobTitle, JobsByIndex[_jobId].paymentMethod, JobsByIndex[_jobId].account);\n  // }\n\n  function getOneJobPostByAccount2(address _account, uint256 _jobId) public view returns (address account, uint256 jobId,string memory jobTitle,string memory paymentMethod){\n    // require(_account <= jobCounter);\n    Job[] storage jobs = JobsByAccount[_account];\n    for (uint index = 0; index < jobs.length; index++) {\n      if (jobs[index].jobId == _jobId) {\n        return (jobs[index].account, jobs[index].jobId, jobs[index].jobTitle, jobs[index].paymentMethod);\n      }\n    }\n    // return (0,\"\",\"\",0x0);\n  }\n  function getOneJobPostByAccount(address _account, uint256 _jobId) public view returns (Job memory job){\n    // require(_account <= jobCounter);\n    Job[] storage jobs = JobsByAccount[_account];\n    for (uint index = 0; index < jobs.length; index++) {\n      if (jobs[index].jobId == _jobId) {\n        return (jobs[index]);\n      }\n    }\n    // return (0,\"\",\"\",0x0);\n  }\n\n  // function updateJobPost(uint256 _jobId, string memory _jobTitle, string memory _paymentMethod, address _account) public{\n  //   require(_jobId <= jobCounter);\n  //   require(JobsByIndex[_jobId].account == msg.sender, \"Not original author\");\n  //   JobsByIndex[_jobId].jobTitle = _jobTitle;\n  //   JobsByIndex[_jobId].paymentMethod = _paymentMethod;\n  //   JobsByIndex[_jobId].account = _account;\n  // }\n\n  function updateJobPostByAccount(uint256 _jobId, string memory _jobTitle, string memory _paymentMethod, address _account, string memory _accountId) public{\n    Job[] storage jobs = JobsByAccount[_account];\n    require(_jobId <= jobCounter);\n    // require(jobs, \"This user does not exist\");\n    require(jobs.length > 0, \"No Job post exists for this user\");\n    for (uint i = 0; i < jobs.length; i++) {\n      if (jobs[i].jobId == _jobId) {\n        jobs[i].jobTitle = _jobTitle;\n        jobs[i].paymentMethod = _paymentMethod;\n        jobs[i].account = _account;\n        jobs[i].accountId = _accountId;\n      }\n    }\n  }\n\n  function getAllJobsByAccount(address _account) public view returns (Job[] memory){\n    Job[] storage jobs = JobsByAccount[_account];\n    require(jobs.length > 0, \"No Job post exists for this user\");\n    return jobs;\n  }\n}\n",
  "sourcePath": "/Users/chris/Downloads/Projects/Hedera-Hackathon-22-main/contracts/JobPost.sol",
  "compiler": {
    "name": "solc",
    "version": "0.8.13+commit.abaa5c0e.Emscripten.clang"
  },
  "schemaVersion": "3.4.7",
  "updatedAt": "2022-06-27T22:58:12.421Z",
  "devdoc": {
    "kind": "dev",
    "methods": {},
    "version": 1
  },
  "userdoc": {
    "kind": "user",
    "methods": {},
    "version": 1
  }
}