{
  "contractName": "JobPost",
  "abi": [
    {
      "inputs": [],
      "stateMutability": "nonpayable",
      "type": "constructor"
    },
    {
      "anonymous": false,
      "inputs": [
        {
          "indexed": false,
          "internalType": "uint256",
          "name": "jobId",
          "type": "uint256"
        },
        {
          "indexed": false,
          "internalType": "string",
          "name": "jobTitle",
          "type": "string"
        },
        {
          "indexed": false,
          "internalType": "string",
          "name": "paymentMethod",
          "type": "string"
        },
        {
          "indexed": false,
          "internalType": "string",
          "name": "accountId",
          "type": "string"
        },
        {
          "indexed": false,
          "internalType": "address",
          "name": "account",
          "type": "address"
        },
        {
          "indexed": false,
          "internalType": "string",
          "name": "jobCompleted",
          "type": "string"
        },
        {
          "components": [
            {
              "internalType": "string",
              "name": "dob",
              "type": "string"
            },
            {
              "internalType": "string",
              "name": "email",
              "type": "string"
            },
            {
              "internalType": "string",
              "name": "gender",
              "type": "string"
            },
            {
              "internalType": "string",
              "name": "nftProfileTokenId",
              "type": "string"
            }
          ],
          "indexed": false,
          "internalType": "struct JobPost.NFTProfile",
          "name": "jobCompletedBy",
          "type": "tuple"
        }
      ],
      "name": "JobPostCreated",
      "type": "event"
    },
    {
      "anonymous": false,
      "inputs": [
        {
          "indexed": false,
          "internalType": "uint256",
          "name": "_jobId",
          "type": "uint256"
        },
        {
          "indexed": false,
          "internalType": "string",
          "name": "_jobTitle",
          "type": "string"
        },
        {
          "indexed": false,
          "internalType": "string",
          "name": "_paymentMethod",
          "type": "string"
        },
        {
          "indexed": false,
          "internalType": "string",
          "name": "_accountId",
          "type": "string"
        },
        {
          "indexed": false,
          "internalType": "address",
          "name": "_account",
          "type": "address"
        },
        {
          "indexed": false,
          "internalType": "string",
          "name": "_jobCompleted",
          "type": "string"
        },
        {
          "components": [
            {
              "internalType": "string",
              "name": "dob",
              "type": "string"
            },
            {
              "internalType": "string",
              "name": "email",
              "type": "string"
            },
            {
              "internalType": "string",
              "name": "gender",
              "type": "string"
            },
            {
              "internalType": "string",
              "name": "nftProfileTokenId",
              "type": "string"
            }
          ],
          "indexed": false,
          "internalType": "struct JobPost.NFTProfile",
          "name": "_jobCompletedBy",
          "type": "tuple"
        }
      ],
      "name": "JobPostUpdated",
      "type": "event"
    },
    {
      "inputs": [],
      "name": "jobCounter",
      "outputs": [
        {
          "internalType": "uint256",
          "name": "",
          "type": "uint256"
        }
      ],
      "stateMutability": "view",
      "type": "function"
    },
    {
      "inputs": [
        {
          "internalType": "string",
          "name": "_jobTitle",
          "type": "string"
        },
        {
          "internalType": "string",
          "name": "_paymentMethod",
          "type": "string"
        },
        {
          "internalType": "string",
          "name": "_accountId",
          "type": "string"
        },
        {
          "internalType": "string",
          "name": "_jobCompleted",
          "type": "string"
        },
        {
          "internalType": "string",
          "name": "_dob",
          "type": "string"
        },
        {
          "internalType": "string",
          "name": "_email",
          "type": "string"
        },
        {
          "internalType": "string",
          "name": "_gender",
          "type": "string"
        },
        {
          "internalType": "string",
          "name": "_nftProfileTokenId",
          "type": "string"
        }
      ],
      "name": "newJobPostByAccount",
      "outputs": [],
      "stateMutability": "nonpayable",
      "type": "function"
    },
    {
      "inputs": [
        {
          "internalType": "address",
          "name": "_account",
          "type": "address"
        },
        {
          "internalType": "uint256",
          "name": "_jobId",
          "type": "uint256"
        }
      ],
      "name": "getOneJobPostByAccount2",
      "outputs": [
        {
          "internalType": "address",
          "name": "account",
          "type": "address"
        },
        {
          "internalType": "string",
          "name": "accountId",
          "type": "string"
        },
        {
          "internalType": "uint256",
          "name": "jobId",
          "type": "uint256"
        },
        {
          "internalType": "string",
          "name": "jobTitle",
          "type": "string"
        },
        {
          "internalType": "string",
          "name": "paymentMethod",
          "type": "string"
        },
        {
          "internalType": "string",
          "name": "jobCompleted",
          "type": "string"
        },
        {
          "components": [
            {
              "internalType": "string",
              "name": "dob",
              "type": "string"
            },
            {
              "internalType": "string",
              "name": "email",
              "type": "string"
            },
            {
              "internalType": "string",
              "name": "gender",
              "type": "string"
            },
            {
              "internalType": "string",
              "name": "nftProfileTokenId",
              "type": "string"
            }
          ],
          "internalType": "struct JobPost.NFTProfile",
          "name": "jobCompletedBy",
          "type": "tuple"
        }
      ],
      "stateMutability": "view",
      "type": "function"
    },
    {
      "inputs": [
        {
          "internalType": "address",
          "name": "_account",
          "type": "address"
        },
        {
          "internalType": "uint256",
          "name": "_jobId",
          "type": "uint256"
        }
      ],
      "name": "getOneJobPostByAccount",
      "outputs": [
        {
          "components": [
            {
              "internalType": "uint256",
              "name": "jobId",
              "type": "uint256"
            },
            {
              "internalType": "string",
              "name": "jobTitle",
              "type": "string"
            },
            {
              "internalType": "string",
              "name": "paymentMethod",
              "type": "string"
            },
            {
              "internalType": "string",
              "name": "accountId",
              "type": "string"
            },
            {
              "internalType": "address",
              "name": "account",
              "type": "address"
            },
            {
              "internalType": "string",
              "name": "jobCompleted",
              "type": "string"
            },
            {
              "components": [
                {
                  "internalType": "string",
                  "name": "dob",
                  "type": "string"
                },
                {
                  "internalType": "string",
                  "name": "email",
                  "type": "string"
                },
                {
                  "internalType": "string",
                  "name": "gender",
                  "type": "string"
                },
                {
                  "internalType": "string",
                  "name": "nftProfileTokenId",
                  "type": "string"
                }
              ],
              "internalType": "struct JobPost.NFTProfile",
              "name": "jobCompletedBy",
              "type": "tuple"
            }
          ],
          "internalType": "struct JobPost.Job",
          "name": "job",
          "type": "tuple"
        }
      ],
      "stateMutability": "view",
      "type": "function"
    },
    {
      "inputs": [
        {
          "internalType": "uint256",
          "name": "_jobId",
          "type": "uint256"
        },
        {
          "internalType": "string",
          "name": "_jobTitle",
          "type": "string"
        },
        {
          "internalType": "string",
          "name": "_paymentMethod",
          "type": "string"
        },
        {
          "internalType": "address",
          "name": "_account",
          "type": "address"
        },
        {
          "internalType": "string",
          "name": "_accountId",
          "type": "string"
        },
        {
          "internalType": "string",
          "name": "_jobCompleted",
          "type": "string"
        },
        {
          "internalType": "string",
          "name": "_dob",
          "type": "string"
        },
        {
          "internalType": "string",
          "name": "_email",
          "type": "string"
        },
        {
          "internalType": "string",
          "name": "_gender",
          "type": "string"
        },
        {
          "internalType": "string",
          "name": "_nftProfileTokenId",
          "type": "string"
        }
      ],
      "name": "updateJobPostByAccount",
      "outputs": [],
      "stateMutability": "nonpayable",
      "type": "function"
    },
    {
      "inputs": [
        {
          "internalType": "address",
          "name": "_account",
          "type": "address"
        }
      ],
      "name": "getAllJobsByAccount",
      "outputs": [
        {
          "components": [
            {
              "internalType": "uint256",
              "name": "jobId",
              "type": "uint256"
            },
            {
              "internalType": "string",
              "name": "jobTitle",
              "type": "string"
            },
            {
              "internalType": "string",
              "name": "paymentMethod",
              "type": "string"
            },
            {
              "internalType": "string",
              "name": "accountId",
              "type": "string"
            },
            {
              "internalType": "address",
              "name": "account",
              "type": "address"
            },
            {
              "internalType": "string",
              "name": "jobCompleted",
              "type": "string"
            },
            {
              "components": [
                {
                  "internalType": "string",
                  "name": "dob",
                  "type": "string"
                },
                {
                  "internalType": "string",
                  "name": "email",
                  "type": "string"
                },
                {
                  "internalType": "string",
                  "name": "gender",
                  "type": "string"
                },
                {
                  "internalType": "string",
                  "name": "nftProfileTokenId",
                  "type": "string"
                }
              ],
              "internalType": "struct JobPost.NFTProfile",
              "name": "jobCompletedBy",
              "type": "tuple"
            }
          ],
          "internalType": "struct JobPost.Job[]",
          "name": "",
          "type": "tuple[]"
        }
      ],
      "stateMutability": "view",
      "type": "function"
    },
    {
      "inputs": [
        {
          "internalType": "address",
          "name": "_account",
          "type": "address"
        },
        {
          "internalType": "uint256",
          "name": "_jobId",
          "type": "uint256"
        },
        {
          "internalType": "string",
          "name": "_jobCompleted",
          "type": "string"
        },
        {
          "internalType": "string",
          "name": "_dob",
          "type": "string"
        },
        {
          "internalType": "string",
          "name": "_email",
          "type": "string"
        },
        {
          "internalType": "string",
          "name": "_gender",
          "type": "string"
        },
        {
          "internalType": "string",
          "name": "_nftProfileTokenId",
          "type": "string"
        }
      ],
      "name": "updateJobWithCompletedBy",
      "outputs": [],
      "stateMutability": "nonpayable",
      "type": "function"
    }
  ],
  "bytecode": "0x6080604052600060015534801561001557600080fd5b50612f3e806100256000396000f3fe608060405234801561001057600080fd5b506004361061007d5760003560e01c80636d34cc981161005b5780636d34cc98146100d8578063ae7ea44a14610108578063df794d5614610138578063ed639f981461016e5761007d565b80632144eaab1461008257806348df15df1461009e57806350355d76146100ba575b600080fd5b61009c60048036038101906100979190611ffe565b61018a565b005b6100b860048036038101906100b3919061212c565b6104e9565b005b6100c2610843565b6040516100cf91906122fa565b60405180910390f35b6100f260048036038101906100ed9190612315565b610849565b6040516100ff91906125da565b60405180910390f35b610122600480360381019061011d91906125fc565b610e0a565b60405161012f91906126f4565b60405180910390f35b610152600480360381019061014d91906125fc565b6113e3565b60405161016597969594939291906127e7565b60405180910390f35b61018860048036038101906101839190612879565b611a4d565b005b60008060008973ffffffffffffffffffffffffffffffffffffffff1673ffffffffffffffffffffffffffffffffffffffff1681526020019081526020016000209050600154871115610211576040517f08c379a000000000000000000000000000000000000000000000000000000000815260040161020890612a5b565b60405180910390fd5b6000818054905011156104a35760005b818054905081101561049d578782828154811061024157610240612a7b565b5b90600052602060002090600a0201600001540361048a578682828154811061026c5761026b612a7b565b5b90600052602060002090600a02016005019080519060200190610290929190611cec565b506040518060800160405280878152602001868152602001858152602001848152508282815481106102c5576102c4612a7b565b5b90600052602060002090600a020160060160008201518160000190805190602001906102f2929190611cec565b50602082015181600101908051906020019061030f929190611cec565b50604082015181600201908051906020019061032c929190611cec565b506060820151816003019080519060200190610349929190611cec565b509050507f24afd75fedcf5ca54709a5024996a39d6ae8e9f54f27c06595a620d5485644948883838154811061038257610381612a7b565b5b90600052602060002090600a02016001018484815481106103a6576103a5612a7b565b5b90600052602060002090600a02016002018585815481106103ca576103c9612a7b565b5b90600052602060002090600a02016003018686815481106103ee576103ed612a7b565b5b90600052602060002090600a020160040160009054906101000a900473ffffffffffffffffffffffffffffffffffffffff1687878154811061043357610432612a7b565b5b90600052602060002090600a020160050188888154811061045757610456612a7b565b5b90600052602060002090600a020160060160405161047b9796959493929190612c95565b60405180910390a150506104e0565b808061049590612d56565b915050610221565b506104de565b6040517f08c379a00000000000000000000000000000000000000000000000000000000081526004016104d590612dea565b60405180910390fd5b505b50505050505050565b60008060008973ffffffffffffffffffffffffffffffffffffffff1673ffffffffffffffffffffffffffffffffffffffff16815260200190815260200160002090506001548b111561053a57600080fd5b6000818054905011610581576040517f08c379a000000000000000000000000000000000000000000000000000000000815260040161057890612e56565b60405180910390fd5b60005b81805490508110156107d2578b8282815481106105a4576105a3612a7b565b5b90600052602060002090600a020160000154036107bf578a8282815481106105cf576105ce612a7b565b5b90600052602060002090600a020160010190805190602001906105f3929190611cec565b508982828154811061060857610607612a7b565b5b90600052602060002090600a0201600201908051906020019061062c929190611cec565b508882828154811061064157610640612a7b565b5b90600052602060002090600a020160040160006101000a81548173ffffffffffffffffffffffffffffffffffffffff021916908373ffffffffffffffffffffffffffffffffffffffff160217905550878282815481106106a4576106a3612a7b565b5b90600052602060002090600a020160030190805190602001906106c8929190611cec565b50868282815481106106dd576106dc612a7b565b5b90600052602060002090600a02016005019080519060200190610701929190611cec565b5060405180608001604052808781526020018681526020018581526020018481525082828154811061073657610735612a7b565b5b90600052602060002090600a02016006016000820151816000019080519060200190610763929190611cec565b506020820151816001019080519060200190610780929190611cec565b50604082015181600201908051906020019061079d929190611cec565b5060608201518160030190805190602001906107ba929190611cec565b509050505b80806107ca90612d56565b915050610584565b507f24afd75fedcf5ca54709a5024996a39d6ae8e9f54f27c06595a620d5485644948b8b8b8a8c8b60405180608001604052808d81526020018c81526020018b81526020018a81525060405161082e9796959493929190612e76565b60405180910390a15050505050505050505050565b60015481565b606060008060008473ffffffffffffffffffffffffffffffffffffffff1673ffffffffffffffffffffffffffffffffffffffff1681526020019081526020016000209050600081805490501115610dfd5780805480602002602001604051908101604052809291908181526020016000905b82821015610df157838290600052602060002090600a02016040518060e0016040529081600082015481526020016001820180546108f890612ad9565b80601f016020809104026020016040519081016040528092919081815260200182805461092490612ad9565b80156109715780601f1061094657610100808354040283529160200191610971565b820191906000526020600020905b81548152906001019060200180831161095457829003601f168201915b5050505050815260200160028201805461098a90612ad9565b80601f01602080910402602001604051908101604052809291908181526020018280546109b690612ad9565b8015610a035780601f106109d857610100808354040283529160200191610a03565b820191906000526020600020905b8154815290600101906020018083116109e657829003601f168201915b50505050508152602001600382018054610a1c90612ad9565b80601f0160208091040260200160405190810160405280929190818152602001828054610a4890612ad9565b8015610a955780601f10610a6a57610100808354040283529160200191610a95565b820191906000526020600020905b815481529060010190602001808311610a7857829003601f168201915b505050505081526020016004820160009054906101000a900473ffffffffffffffffffffffffffffffffffffffff1673ffffffffffffffffffffffffffffffffffffffff1673ffffffffffffffffffffffffffffffffffffffff168152602001600582018054610b0490612ad9565b80601f0160208091040260200160405190810160405280929190818152602001828054610b3090612ad9565b8015610b7d5780601f10610b5257610100808354040283529160200191610b7d565b820191906000526020600020905b815481529060010190602001808311610b6057829003601f168201915b5050505050815260200160068201604051806080016040529081600082018054610ba690612ad9565b80601f0160208091040260200160405190810160405280929190818152602001828054610bd290612ad9565b8015610c1f5780601f10610bf457610100808354040283529160200191610c1f565b820191906000526020600020905b815481529060010190602001808311610c0257829003601f168201915b50505050508152602001600182018054610c3890612ad9565b80601f0160208091040260200160405190810160405280929190818152602001828054610c6490612ad9565b8015610cb15780601f10610c8657610100808354040283529160200191610cb1565b820191906000526020600020905b815481529060010190602001808311610c9457829003601f168201915b50505050508152602001600282018054610cca90612ad9565b80601f0160208091040260200160405190810160405280929190818152602001828054610cf690612ad9565b8015610d435780601f10610d1857610100808354040283529160200191610d43565b820191906000526020600020905b815481529060010190602001808311610d2657829003601f168201915b50505050508152602001600382018054610d5c90612ad9565b80601f0160208091040260200160405190810160405280929190818152602001828054610d8890612ad9565b8015610dd55780601f10610daa57610100808354040283529160200191610dd5565b820191906000526020600020905b815481529060010190602001808311610db857829003601f168201915b50505050508152505081525050815260200190600101906108bb565b50505050915050610e05565b606080925050505b919050565b610e12611d72565b60008060008573ffffffffffffffffffffffffffffffffffffffff1673ffffffffffffffffffffffffffffffffffffffff168152602001908152602001600020905060005b81805490508110156113da5783828281548110610e7757610e76612a7b565b5b90600052602060002090600a020160000154036113c757818181548110610ea157610ea0612a7b565b5b90600052602060002090600a02016040518060e001604052908160008201548152602001600182018054610ed490612ad9565b80601f0160208091040260200160405190810160405280929190818152602001828054610f0090612ad9565b8015610f4d5780601f10610f2257610100808354040283529160200191610f4d565b820191906000526020600020905b815481529060010190602001808311610f3057829003601f168201915b50505050508152602001600282018054610f6690612ad9565b80601f0160208091040260200160405190810160405280929190818152602001828054610f9290612ad9565b8015610fdf5780601f10610fb457610100808354040283529160200191610fdf565b820191906000526020600020905b815481529060010190602001808311610fc257829003601f168201915b50505050508152602001600382018054610ff890612ad9565b80601f016020809104026020016040519081016040528092919081815260200182805461102490612ad9565b80156110715780601f1061104657610100808354040283529160200191611071565b820191906000526020600020905b81548152906001019060200180831161105457829003601f168201915b505050505081526020016004820160009054906101000a900473ffffffffffffffffffffffffffffffffffffffff1673ffffffffffffffffffffffffffffffffffffffff1673ffffffffffffffffffffffffffffffffffffffff1681526020016005820180546110e090612ad9565b80601f016020809104026020016040519081016040528092919081815260200182805461110c90612ad9565b80156111595780601f1061112e57610100808354040283529160200191611159565b820191906000526020600020905b81548152906001019060200180831161113c57829003601f168201915b505050505081526020016006820160405180608001604052908160008201805461118290612ad9565b80601f01602080910402602001604051908101604052809291908181526020018280546111ae90612ad9565b80156111fb5780601f106111d0576101008083540402835291602001916111fb565b820191906000526020600020905b8154815290600101906020018083116111de57829003601f168201915b5050505050815260200160018201805461121490612ad9565b80601f016020809104026020016040519081016040528092919081815260200182805461124090612ad9565b801561128d5780601f106112625761010080835404028352916020019161128d565b820191906000526020600020905b81548152906001019060200180831161127057829003601f168201915b505050505081526020016002820180546112a690612ad9565b80601f01602080910402602001604051908101604052809291908181526020018280546112d290612ad9565b801561131f5780601f106112f45761010080835404028352916020019161131f565b820191906000526020600020905b81548152906001019060200180831161130257829003601f168201915b5050505050815260200160038201805461133890612ad9565b80601f016020809104026020016040519081016040528092919081815260200182805461136490612ad9565b80156113b15780601f10611386576101008083540402835291602001916113b1565b820191906000526020600020905b81548152906001019060200180831161139457829003601f168201915b50505050508152505081525050925050506113dd565b80806113d290612d56565b915050610e57565b50505b92915050565b60006060600060608060606113f6611dcb565b60008060008b73ffffffffffffffffffffffffffffffffffffffff1673ffffffffffffffffffffffffffffffffffffffff168152602001908152602001600020905060005b8180549050811015611a3e578982828154811061145b5761145a612a7b565b5b90600052602060002090600a02016000015403611a2b5781818154811061148557611484612a7b565b5b90600052602060002090600a020160040160009054906101000a900473ffffffffffffffffffffffffffffffffffffffff168282815481106114ca576114c9612a7b565b5b90600052602060002090600a02016003018383815481106114ee576114ed612a7b565b5b90600052602060002090600a02016000015484848154811061151357611512612a7b565b5b90600052602060002090600a020160010185858154811061153757611536612a7b565b5b90600052602060002090600a020160020186868154811061155b5761155a612a7b565b5b90600052602060002090600a020160050187878154811061157f5761157e612a7b565b5b90600052602060002090600a020160060185805461159c90612ad9565b80601f01602080910402602001604051908101604052809291908181526020018280546115c890612ad9565b80156116155780601f106115ea57610100808354040283529160200191611615565b820191906000526020600020905b8154815290600101906020018083116115f857829003601f168201915b5050505050955083805461162890612ad9565b80601f016020809104026020016040519081016040528092919081815260200182805461165490612ad9565b80156116a15780601f10611676576101008083540402835291602001916116a1565b820191906000526020600020905b81548152906001019060200180831161168457829003601f168201915b505050505093508280546116b490612ad9565b80601f01602080910402602001604051908101604052809291908181526020018280546116e090612ad9565b801561172d5780601f106117025761010080835404028352916020019161172d565b820191906000526020600020905b81548152906001019060200180831161171057829003601f168201915b5050505050925081805461174090612ad9565b80601f016020809104026020016040519081016040528092919081815260200182805461176c90612ad9565b80156117b95780601f1061178e576101008083540402835291602001916117b9565b820191906000526020600020905b81548152906001019060200180831161179c57829003601f168201915b50505050509150806040518060800160405290816000820180546117dc90612ad9565b80601f016020809104026020016040519081016040528092919081815260200182805461180890612ad9565b80156118555780601f1061182a57610100808354040283529160200191611855565b820191906000526020600020905b81548152906001019060200180831161183857829003601f168201915b5050505050815260200160018201805461186e90612ad9565b80601f016020809104026020016040519081016040528092919081815260200182805461189a90612ad9565b80156118e75780601f106118bc576101008083540402835291602001916118e7565b820191906000526020600020905b8154815290600101906020018083116118ca57829003601f168201915b5050505050815260200160028201805461190090612ad9565b80601f016020809104026020016040519081016040528092919081815260200182805461192c90612ad9565b80156119795780601f1061194e57610100808354040283529160200191611979565b820191906000526020600020905b81548152906001019060200180831161195c57829003601f168201915b5050505050815260200160038201805461199290612ad9565b80601f01602080910402602001604051908101604052809291908181526020018280546119be90612ad9565b8015611a0b5780601f106119e057610100808354040283529160200191611a0b565b820191906000526020600020905b8154815290600101906020018083116119ee57829003601f168201915b505050505081525050905098509850985098509850985098505050611a41565b8080611a3690612d56565b91505061143b565b50505b92959891949750929550565b60016000815480929190611a6090612d56565b91905055506000803373ffffffffffffffffffffffffffffffffffffffff1673ffffffffffffffffffffffffffffffffffffffff1681526020019081526020016000206040518060e0016040528060015481526020018a81526020018981526020018881526020013373ffffffffffffffffffffffffffffffffffffffff16815260200187815260200160405180608001604052808881526020018781526020018681526020018581525081525090806001815401808255809150506001900390600052602060002090600a0201600090919091909150600082015181600001556020820151816001019080519060200190611b5d929190611cec565b506040820151816002019080519060200190611b7a929190611cec565b506060820151816003019080519060200190611b97929190611cec565b5060808201518160040160006101000a81548173ffffffffffffffffffffffffffffffffffffffff021916908373ffffffffffffffffffffffffffffffffffffffff16021790555060a0820151816005019080519060200190611bfb929190611cec565b5060c0820151816006016000820151816000019080519060200190611c21929190611cec565b506020820151816001019080519060200190611c3e929190611cec565b506040820151816002019080519060200190611c5b929190611cec565b506060820151816003019080519060200190611c78929190611cec565b50505050507fbb9491544fe91a7a04e4f1f945a9b33e9a5609696f6a18a8cfb27eadf67c5281600154898989338a60405180608001604052808c81526020018b81526020018a815260200189815250604051611cda9796959493929190612e76565b60405180910390a15050505050505050565b828054611cf890612ad9565b90600052602060002090601f016020900481019282611d1a5760008555611d61565b82601f10611d3357805160ff1916838001178555611d61565b82800160010185558215611d61579182015b82811115611d60578251825591602001919060010190611d45565b5b509050611d6e9190611df3565b5090565b6040518060e0016040528060008152602001606081526020016060815260200160608152602001600073ffffffffffffffffffffffffffffffffffffffff16815260200160608152602001611dc5611dcb565b81525090565b6040518060800160405280606081526020016060815260200160608152602001606081525090565b5b80821115611e0c576000816000905550600101611df4565b5090565b6000604051905090565b600080fd5b600080fd5b600073ffffffffffffffffffffffffffffffffffffffff82169050919050565b6000611e4f82611e24565b9050919050565b611e5f81611e44565b8114611e6a57600080fd5b50565b600081359050611e7c81611e56565b92915050565b6000819050919050565b611e9581611e82565b8114611ea057600080fd5b50565b600081359050611eb281611e8c565b92915050565b600080fd5b600080fd5b6000601f19601f8301169050919050565b7f4e487b7100000000000000000000000000000000000000000000000000000000600052604160045260246000fd5b611f0b82611ec2565b810181811067ffffffffffffffff82111715611f2a57611f29611ed3565b5b80604052505050565b6000611f3d611e10565b9050611f498282611f02565b919050565b600067ffffffffffffffff821115611f6957611f68611ed3565b5b611f7282611ec2565b9050602081019050919050565b82818337600083830152505050565b6000611fa1611f9c84611f4e565b611f33565b905082815260208101848484011115611fbd57611fbc611ebd565b5b611fc8848285611f7f565b509392505050565b600082601f830112611fe557611fe4611eb8565b5b8135611ff5848260208601611f8e565b91505092915050565b600080600080600080600060e0888a03121561201d5761201c611e1a565b5b600061202b8a828b01611e6d565b975050602061203c8a828b01611ea3565b965050604088013567ffffffffffffffff81111561205d5761205c611e1f565b5b6120698a828b01611fd0565b955050606088013567ffffffffffffffff81111561208a57612089611e1f565b5b6120968a828b01611fd0565b945050608088013567ffffffffffffffff8111156120b7576120b6611e1f565b5b6120c38a828b01611fd0565b93505060a088013567ffffffffffffffff8111156120e4576120e3611e1f565b5b6120f08a828b01611fd0565b92505060c088013567ffffffffffffffff81111561211157612110611e1f565b5b61211d8a828b01611fd0565b91505092959891949750929550565b6000806000806000806000806000806101408b8d0312156121505761214f611e1a565b5b600061215e8d828e01611ea3565b9a505060208b013567ffffffffffffffff81111561217f5761217e611e1f565b5b61218b8d828e01611fd0565b99505060408b013567ffffffffffffffff8111156121ac576121ab611e1f565b5b6121b88d828e01611fd0565b98505060606121c98d828e01611e6d565b97505060808b013567ffffffffffffffff8111156121ea576121e9611e1f565b5b6121f68d828e01611fd0565b96505060a08b013567ffffffffffffffff81111561221757612216611e1f565b5b6122238d828e01611fd0565b95505060c08b013567ffffffffffffffff81111561224457612243611e1f565b5b6122508d828e01611fd0565b94505060e08b013567ffffffffffffffff81111561227157612270611e1f565b5b61227d8d828e01611fd0565b9350506101008b013567ffffffffffffffff81111561229f5761229e611e1f565b5b6122ab8d828e01611fd0565b9250506101208b013567ffffffffffffffff8111156122cd576122cc611e1f565b5b6122d98d828e01611fd0565b9150509295989b9194979a5092959850565b6122f481611e82565b82525050565b600060208201905061230f60008301846122eb565b92915050565b60006020828403121561232b5761232a611e1a565b5b600061233984828501611e6d565b91505092915050565b600081519050919050565b600082825260208201905092915050565b6000819050602082019050919050565b61237781611e82565b82525050565b600081519050919050565b600082825260208201905092915050565b60005b838110156123b757808201518184015260208101905061239c565b838111156123c6576000848401525b50505050565b60006123d78261237d565b6123e18185612388565b93506123f1818560208601612399565b6123fa81611ec2565b840191505092915050565b61240e81611e44565b82525050565b6000608083016000830151848203600086015261243182826123cc565b9150506020830151848203602086015261244b82826123cc565b9150506040830151848203604086015261246582826123cc565b9150506060830151848203606086015261247f82826123cc565b9150508091505092915050565b600060e0830160008301516124a4600086018261236e565b50602083015184820360208601526124bc82826123cc565b915050604083015184820360408601526124d682826123cc565b915050606083015184820360608601526124f082826123cc565b91505060808301516125056080860182612405565b5060a083015184820360a086015261251d82826123cc565b91505060c083015184820360c08601526125378282612414565b9150508091505092915050565b6000612550838361248c565b905092915050565b6000602082019050919050565b600061257082612342565b61257a818561234d565b93508360208202850161258c8561235e565b8060005b858110156125c857848403895281516125a98582612544565b94506125b483612558565b925060208a01995050600181019050612590565b50829750879550505050505092915050565b600060208201905081810360008301526125f48184612565565b905092915050565b6000806040838503121561261357612612611e1a565b5b600061262185828601611e6d565b925050602061263285828601611ea3565b9150509250929050565b600060e083016000830151612654600086018261236e565b506020830151848203602086015261266c82826123cc565b9150506040830151848203604086015261268682826123cc565b915050606083015184820360608601526126a082826123cc565b91505060808301516126b56080860182612405565b5060a083015184820360a08601526126cd82826123cc565b91505060c083015184820360c08601526126e78282612414565b9150508091505092915050565b6000602082019050818103600083015261270e818461263c565b905092915050565b61271f81611e44565b82525050565b600082825260208201905092915050565b60006127418261237d565b61274b8185612725565b935061275b818560208601612399565b61276481611ec2565b840191505092915050565b6000608083016000830151848203600086015261278c82826123cc565b915050602083015184820360208601526127a682826123cc565b915050604083015184820360408601526127c082826123cc565b915050606083015184820360608601526127da82826123cc565b9150508091505092915050565b600060e0820190506127fc600083018a612716565b818103602083015261280e8189612736565b905061281d60408301886122eb565b818103606083015261282f8187612736565b905081810360808301526128438186612736565b905081810360a08301526128578185612736565b905081810360c083015261286b818461276f565b905098975050505050505050565b600080600080600080600080610100898b03121561289a57612899611e1a565b5b600089013567ffffffffffffffff8111156128b8576128b7611e1f565b5b6128c48b828c01611fd0565b985050602089013567ffffffffffffffff8111156128e5576128e4611e1f565b5b6128f18b828c01611fd0565b975050604089013567ffffffffffffffff81111561291257612911611e1f565b5b61291e8b828c01611fd0565b965050606089013567ffffffffffffffff81111561293f5761293e611e1f565b5b61294b8b828c01611fd0565b955050608089013567ffffffffffffffff81111561296c5761296b611e1f565b5b6129788b828c01611fd0565b94505060a089013567ffffffffffffffff81111561299957612998611e1f565b5b6129a58b828c01611fd0565b93505060c089013567ffffffffffffffff8111156129c6576129c5611e1f565b5b6129d28b828c01611fd0565b92505060e089013567ffffffffffffffff8111156129f3576129f2611e1f565b5b6129ff8b828c01611fd0565b9150509295985092959890939650565b7f496e76616c6964204a6f62204944000000000000000000000000000000000000600082015250565b6000612a45600e83612725565b9150612a5082612a0f565b602082019050919050565b60006020820190508181036000830152612a7481612a38565b9050919050565b7f4e487b7100000000000000000000000000000000000000000000000000000000600052603260045260246000fd5b7f4e487b7100000000000000000000000000000000000000000000000000000000600052602260045260246000fd5b60006002820490506001821680612af157607f821691505b602082108103612b0457612b03612aaa565b5b50919050565b60008190508160005260206000209050919050565b60008154612b2c81612ad9565b612b368186612725565b94506001821660008114612b515760018114612b6357612b96565b60ff1983168652602086019350612b96565b612b6c85612b0a565b60005b83811015612b8e57815481890152600182019150602081019050612b6f565b808801955050505b50505092915050565b60008154612bac81612ad9565b612bb68186612388565b94506001821660008114612bd15760018114612be357612c16565b60ff1983168652602086019350612c16565b612bec85612b0a565b60005b83811015612c0e57815481890152600182019150602081019050612bef565b808801955050505b50505092915050565b60006080830160008084018583036000870152612c3c8382612b9f565b925050600184018583036020870152612c558382612b9f565b925050600284018583036040870152612c6e8382612b9f565b925050600384018583036060870152612c878382612b9f565b925050819250505092915050565b600060e082019050612caa600083018a6122eb565b8181036020830152612cbc8189612b1f565b90508181036040830152612cd08188612b1f565b90508181036060830152612ce48187612b1f565b9050612cf36080830186612716565b81810360a0830152612d058185612b1f565b905081810360c0830152612d198184612c1f565b905098975050505050505050565b7f4e487b7100000000000000000000000000000000000000000000000000000000600052601160045260246000fd5b6000612d6182611e82565b91507fffffffffffffffffffffffffffffffffffffffffffffffffffffffffffffffff8203612d9357612d92612d27565b5b600182019050919050565b7f4a6f62206e6f7420666f756e6400000000000000000000000000000000000000600082015250565b6000612dd4600d83612725565b9150612ddf82612d9e565b602082019050919050565b60006020820190508181036000830152612e0381612dc7565b9050919050565b7f4e6f204a6f6220706f73742065786973747320666f7220746869732075736572600082015250565b6000612e40602083612725565b9150612e4b82612e0a565b602082019050919050565b60006020820190508181036000830152612e6f81612e33565b9050919050565b600060e082019050612e8b600083018a6122eb565b8181036020830152612e9d8189612736565b90508181036040830152612eb18188612736565b90508181036060830152612ec58187612736565b9050612ed46080830186612716565b81810360a0830152612ee68185612736565b905081810360c0830152612efa818461276f565b90509897505050505050505056fea264697066735822122052c34caf1ece37102b036e47be100e50c7c4a4f0e54f3ed99ed51341daaf536d64736f6c634300080d0033",
  "immutableReferences": {},
  "source": "// SPDX-License-Identifier: MIT\npragma solidity >=0.4.22 <0.9.0;\n\npragma experimental ABIEncoderV2;\n\ncontract JobPost {\n    struct NFTProfile {\n        string dob;\n        string email;\n        string gender;\n        string nftProfileTokenId;\n    }\n\n    struct Job {\n        uint256 jobId;\n        string jobTitle;\n        string paymentMethod;\n        string accountId;\n        address account;\n        string jobCompleted;\n        NFTProfile jobCompletedBy;\n    }\n\n    enum paymentMethods {\n        CASH,\n        DEBIT,\n        CREDIT,\n        CRYPTO\n    }\n\n    event JobPostCreated(\n        uint256 jobId,\n        string jobTitle,\n        string paymentMethod,\n        string accountId,\n        address account,\n        string jobCompleted,\n        NFTProfile jobCompletedBy\n    );\n\n    event JobPostUpdated(\n        uint256 _jobId,\n        string _jobTitle,\n        string _paymentMethod,\n        string _accountId,\n        address _account,\n        string _jobCompleted,\n        NFTProfile _jobCompletedBy\n    );\n\n    // mapping(uint => Job) JobsByIndex;\n    mapping(address => Job[]) JobsByAccount;\n    uint256 public jobCounter = 0;\n\n    constructor() {}\n\n    function newJobPostByAccount(\n        string memory _jobTitle,\n        string memory _paymentMethod,\n        string memory _accountId,\n        string memory _jobCompleted,\n        string memory _dob,\n        string memory _email,\n        string memory _gender,\n        string memory _nftProfileTokenId\n    ) public {\n        jobCounter++;\n        JobsByAccount[msg.sender].push(\n            Job({\n                jobId: jobCounter,\n                jobTitle: _jobTitle,\n                paymentMethod: _paymentMethod,\n                accountId: _accountId,\n                account: msg.sender,\n                jobCompleted: _jobCompleted,\n                jobCompletedBy: NFTProfile({\n                    dob: _dob,\n                    email: _email,\n                    gender: _gender,\n                    nftProfileTokenId: _nftProfileTokenId\n                })\n            })\n        );\n\n        emit JobPostCreated(\n            jobCounter,\n            _jobTitle,\n            _paymentMethod,\n            _accountId,\n            msg.sender,\n            _jobCompleted,\n            NFTProfile({\n                dob: _dob,\n                email: _email,\n                gender: _gender,\n                nftProfileTokenId: _nftProfileTokenId\n            })\n        );\n    }\n\n    function getOneJobPostByAccount2(\n        address _account,\n        uint256 _jobId\n    )\n        public\n        view\n        returns (\n            address account,\n            string memory accountId,\n            uint256 jobId,\n            string memory jobTitle,\n            string memory paymentMethod,\n            string memory jobCompleted,\n            NFTProfile memory jobCompletedBy\n        )\n    {\n        // require(_account <= jobCounter);\n        Job[] storage jobs = JobsByAccount[_account];\n        for (uint256 index = 0; index < jobs.length; index++) {\n            if (jobs[index].jobId == _jobId) {\n                return (\n                    jobs[index].account,\n                    jobs[index].accountId,\n                    jobs[index].jobId,\n                    jobs[index].jobTitle,\n                    jobs[index].paymentMethod,\n                    jobs[index].jobCompleted,\n                    jobs[index].jobCompletedBy\n                );\n            }\n        }\n    }\n\n    function getOneJobPostByAccount(\n        address _account,\n        uint256 _jobId\n    ) public view returns (Job memory job) {\n        // require(_account <= jobCounter);\n        Job[] storage jobs = JobsByAccount[_account];\n        for (uint256 index = 0; index < jobs.length; index++) {\n            if (jobs[index].jobId == _jobId) {\n                return (jobs[index]);\n            }\n        }\n        // return (0,\"\",\"\",0x0);\n    }\n\n    function updateJobPostByAccount(\n        uint256 _jobId,\n        string memory _jobTitle,\n        string memory _paymentMethod,\n        address _account,\n        string memory _accountId,\n        string memory _jobCompleted,\n        string memory _dob,\n        string memory _email,\n        string memory _gender,\n        string memory _nftProfileTokenId\n    ) public {\n        Job[] storage jobs = JobsByAccount[_account];\n        require(_jobId <= jobCounter);\n        // require(jobs, \"This user does not exist\");\n        require(jobs.length > 0, \"No Job post exists for this user\");\n        for (uint256 i = 0; i < jobs.length; i++) {\n            if (jobs[i].jobId == _jobId) {\n                jobs[i].jobTitle = _jobTitle;\n                jobs[i].paymentMethod = _paymentMethod;\n                jobs[i].account = _account;\n                jobs[i].accountId = _accountId;\n                jobs[i].jobCompleted = _jobCompleted;\n                jobs[i].jobCompletedBy = NFTProfile({\n                    dob: _dob,\n                    email: _email,\n                    gender: _gender,\n                    nftProfileTokenId: _nftProfileTokenId\n                });\n            }\n        }\n        emit JobPostUpdated(\n            _jobId,\n            _jobTitle,\n            _paymentMethod,\n            _accountId,\n            _account,\n            _jobCompleted,\n            NFTProfile({\n                dob: _dob,\n                email: _email,\n                gender: _gender,\n                nftProfileTokenId: _nftProfileTokenId\n            })\n        );\n    }\n\n    function getAllJobsByAccount(\n        address _account\n    ) public view returns (Job[] memory) {\n        Job[] storage jobs = JobsByAccount[_account];\n        // require(jobs.length > 0, \"No Job post exists for this user\");\n        if (jobs.length > 0) {\n            return jobs;\n        } else {\n            Job[] memory emptyJobs;\n            return emptyJobs;\n        }\n    }\n\n    function updateJobWithCompletedBy(\n        address _account,\n        uint256 _jobId,\n        string memory _jobCompleted,\n        string memory _dob,\n        string memory _email,\n        string memory _gender,\n        string memory _nftProfileTokenId\n    ) public {\n        Job[] storage jobs = JobsByAccount[_account];\n\n        require(_jobId <= jobCounter, \"Invalid Job ID\");\n\n        if (jobs.length > 0) {\n            for (uint256 i = 0; i < jobs.length; i++) {\n                if (jobs[i].jobId == _jobId) {\n                    jobs[i].jobCompleted = _jobCompleted;\n                    jobs[i].jobCompletedBy = NFTProfile({\n                        dob: _dob,\n                        email: _email,\n                        gender: _gender,\n                        nftProfileTokenId: _nftProfileTokenId\n                    });\n\n                    emit JobPostUpdated(\n                        _jobId,\n                        jobs[i].jobTitle,\n                        jobs[i].paymentMethod,\n                        jobs[i].accountId,\n                        jobs[i].account,\n                        jobs[i].jobCompleted,\n                        jobs[i].jobCompletedBy\n                    );\n\n                    return;\n                }\n            }\n        } else {\n            revert(\"Job not found\");\n        }\n    }\n}\n",
  "sourcePath": "/root/projects/thomaskhang/Open-Meta-Markets/app/truffle-project/contracts/JobPost.sol",
  "compiler": {
    "name": "solc",
    "version": "0.8.13+commit.abaa5c0e.Emscripten.clang"
  },
  "schemaVersion": "3.4.16",
  "updatedAt": "2024-12-06T15:22:55.917Z",
  "devdoc": {
    "kind": "dev",
    "methods": {},
    "version": 1
  },
  "userdoc": {
    "kind": "user",
    "methods": {},
    "version": 1
  }
}