{
  "contractName": "JobPost",
  "abi": [
    {
      "inputs": [],
      "stateMutability": "nonpayable",
      "type": "constructor"
    },
    {
      "anonymous": false,
      "inputs": [
        {
          "indexed": false,
          "internalType": "uint256",
          "name": "jobId",
          "type": "uint256"
        },
        {
          "indexed": false,
          "internalType": "string",
          "name": "jobTitle",
          "type": "string"
        },
        {
          "indexed": false,
          "internalType": "string",
          "name": "paymentMethod",
          "type": "string"
        },
        {
          "indexed": false,
          "internalType": "string",
          "name": "accountId",
          "type": "string"
        },
        {
          "indexed": false,
          "internalType": "address",
          "name": "account",
          "type": "address"
        }
      ],
      "name": "JobPostCreated",
      "type": "event"
    },
    {
      "anonymous": false,
      "inputs": [
        {
          "indexed": false,
          "internalType": "uint256",
          "name": "_jobId",
          "type": "uint256"
        },
        {
          "indexed": false,
          "internalType": "string",
          "name": "_jobTitle",
          "type": "string"
        },
        {
          "indexed": false,
          "internalType": "string",
          "name": "_paymentMethod",
          "type": "string"
        },
        {
          "indexed": false,
          "internalType": "address",
          "name": "_account",
          "type": "address"
        },
        {
          "indexed": false,
          "internalType": "string",
          "name": "_accountId",
          "type": "string"
        }
      ],
      "name": "JobPostUpdated",
      "type": "event"
    },
    {
      "inputs": [],
      "name": "jobCounter",
      "outputs": [
        {
          "internalType": "uint256",
          "name": "",
          "type": "uint256"
        }
      ],
      "stateMutability": "view",
      "type": "function"
    },
    {
      "inputs": [
        {
          "internalType": "string",
          "name": "_jobTitle",
          "type": "string"
        },
        {
          "internalType": "string",
          "name": "_paymentMethod",
          "type": "string"
        },
        {
          "internalType": "string",
          "name": "_accountId",
          "type": "string"
        }
      ],
      "name": "newJobPostByAccount",
      "outputs": [],
      "stateMutability": "nonpayable",
      "type": "function"
    },
    {
      "inputs": [
        {
          "internalType": "address",
          "name": "_account",
          "type": "address"
        },
        {
          "internalType": "uint256",
          "name": "_jobId",
          "type": "uint256"
        }
      ],
      "name": "getOneJobPostByAccount2",
      "outputs": [
        {
          "internalType": "address",
          "name": "account",
          "type": "address"
        },
        {
          "internalType": "string",
          "name": "accountId",
          "type": "string"
        },
        {
          "internalType": "uint256",
          "name": "jobId",
          "type": "uint256"
        },
        {
          "internalType": "string",
          "name": "jobTitle",
          "type": "string"
        },
        {
          "internalType": "string",
          "name": "paymentMethod",
          "type": "string"
        }
      ],
      "stateMutability": "view",
      "type": "function"
    },
    {
      "inputs": [
        {
          "internalType": "address",
          "name": "_account",
          "type": "address"
        },
        {
          "internalType": "uint256",
          "name": "_jobId",
          "type": "uint256"
        }
      ],
      "name": "getOneJobPostByAccount",
      "outputs": [
        {
          "components": [
            {
              "internalType": "uint256",
              "name": "jobId",
              "type": "uint256"
            },
            {
              "internalType": "string",
              "name": "jobTitle",
              "type": "string"
            },
            {
              "internalType": "string",
              "name": "paymentMethod",
              "type": "string"
            },
            {
              "internalType": "string",
              "name": "accountId",
              "type": "string"
            },
            {
              "internalType": "address",
              "name": "account",
              "type": "address"
            }
          ],
          "internalType": "struct JobPost.Job",
          "name": "job",
          "type": "tuple"
        }
      ],
      "stateMutability": "view",
      "type": "function"
    },
    {
      "inputs": [
        {
          "internalType": "uint256",
          "name": "_jobId",
          "type": "uint256"
        },
        {
          "internalType": "string",
          "name": "_jobTitle",
          "type": "string"
        },
        {
          "internalType": "string",
          "name": "_paymentMethod",
          "type": "string"
        },
        {
          "internalType": "address",
          "name": "_account",
          "type": "address"
        },
        {
          "internalType": "string",
          "name": "_accountId",
          "type": "string"
        }
      ],
      "name": "updateJobPostByAccount",
      "outputs": [],
      "stateMutability": "nonpayable",
      "type": "function"
    },
    {
      "inputs": [
        {
          "internalType": "address",
          "name": "_account",
          "type": "address"
        }
      ],
      "name": "getAllJobsByAccount",
      "outputs": [
        {
          "components": [
            {
              "internalType": "uint256",
              "name": "jobId",
              "type": "uint256"
            },
            {
              "internalType": "string",
              "name": "jobTitle",
              "type": "string"
            },
            {
              "internalType": "string",
              "name": "paymentMethod",
              "type": "string"
            },
            {
              "internalType": "string",
              "name": "accountId",
              "type": "string"
            },
            {
              "internalType": "address",
              "name": "account",
              "type": "address"
            }
          ],
          "internalType": "struct JobPost.Job[]",
          "name": "",
          "type": "tuple[]"
        }
      ],
      "stateMutability": "view",
      "type": "function"
    }
  ],
  "bytecode": "0x6080604052600060015534801561001557600080fd5b506118ff806100256000396000f3fe608060405234801561001057600080fd5b50600436106100625760003560e01c80634a18d60f1461006757806350355d76146100835780636111f54e146100a15780636d34cc98146100bd578063ae7ea44a146100ed578063df794d561461011d575b600080fd5b610081600480360381019061007c9190611105565b610151565b005b61008b61038d565b60405161009891906111e3565b60405180910390f35b6100bb60048036038101906100b691906111fe565b610393565b005b6100d760048036038101906100d291906112a5565b610541565b6040516100e491906114be565b60405180910390f35b610107600480360381019061010291906114e0565b610814565b60405161011491906115a4565b60405180910390f35b610137600480360381019061013291906114e0565b610aff565b60405161014895949392919061161f565b60405180910390f35b60008060008473ffffffffffffffffffffffffffffffffffffffff1673ffffffffffffffffffffffffffffffffffffffff16815260200190815260200160002090506001548611156101a257600080fd5b60008180549050116101e9576040517f08c379a00000000000000000000000000000000000000000000000000000000081526004016101e0906116d3565b60405180910390fd5b60005b8180549050811015610345578682828154811061020c5761020b6116f3565b5b906000526020600020906005020160000154036103325785828281548110610237576102366116f3565b5b9060005260206000209060050201600101908051906020019061025b929190610e2f565b50848282815481106102705761026f6116f3565b5b90600052602060002090600502016002019080519060200190610294929190610e2f565b50838282815481106102a9576102a86116f3565b5b906000526020600020906005020160040160006101000a81548173ffffffffffffffffffffffffffffffffffffffff021916908373ffffffffffffffffffffffffffffffffffffffff1602179055508282828154811061030c5761030b6116f3565b5b90600052602060002090600502016003019080519060200190610330929190610e2f565b505b808061033d90611751565b9150506101ec565b507f59b881276a2ac20200e4964e2322e12d455b50cdc1166da0e7d0660662927c6a868686868660405161037d959493929190611799565b60405180910390a1505050505050565b60015481565b600160008154809291906103a690611751565b91905055506000803373ffffffffffffffffffffffffffffffffffffffff1673ffffffffffffffffffffffffffffffffffffffff1681526020019081526020016000206040518060a0016040528060015481526020018581526020018481526020018381526020013373ffffffffffffffffffffffffffffffffffffffff168152509080600181540180825580915050600190039060005260206000209060050201600090919091909150600082015181600001556020820151816001019080519060200190610477929190610e2f565b506040820151816002019080519060200190610494929190610e2f565b5060608201518160030190805190602001906104b1929190610e2f565b5060808201518160040160006101000a81548173ffffffffffffffffffffffffffffffffffffffff021916908373ffffffffffffffffffffffffffffffffffffffff16021790555050507ffabfe3a7b4f133fbbe18c32d40269e34923ecef5a6cb8b3006f3af5b62c9077260015484848433604051610534959493929190611801565b60405180910390a1505050565b606060008060008473ffffffffffffffffffffffffffffffffffffffff1673ffffffffffffffffffffffffffffffffffffffff16815260200190815260200160002090506000818054905011156108075780805480602002602001604051908101604052809291908181526020016000905b828210156107fb57838290600052602060002090600502016040518060a0016040529081600082015481526020016001820180546105f090611898565b80601f016020809104026020016040519081016040528092919081815260200182805461061c90611898565b80156106695780601f1061063e57610100808354040283529160200191610669565b820191906000526020600020905b81548152906001019060200180831161064c57829003601f168201915b5050505050815260200160028201805461068290611898565b80601f01602080910402602001604051908101604052809291908181526020018280546106ae90611898565b80156106fb5780601f106106d0576101008083540402835291602001916106fb565b820191906000526020600020905b8154815290600101906020018083116106de57829003601f168201915b5050505050815260200160038201805461071490611898565b80601f016020809104026020016040519081016040528092919081815260200182805461074090611898565b801561078d5780601f106107625761010080835404028352916020019161078d565b820191906000526020600020905b81548152906001019060200180831161077057829003601f168201915b505050505081526020016004820160009054906101000a900473ffffffffffffffffffffffffffffffffffffffff1673ffffffffffffffffffffffffffffffffffffffff1673ffffffffffffffffffffffffffffffffffffffff1681525050815260200190600101906105b3565b5050505091505061080f565b606080925050505b919050565b61081c610eb5565b60008060008573ffffffffffffffffffffffffffffffffffffffff1673ffffffffffffffffffffffffffffffffffffffff168152602001908152602001600020905060005b8180549050811015610af65783828281548110610881576108806116f3565b5b90600052602060002090600502016000015403610ae3578181815481106108ab576108aa6116f3565b5b90600052602060002090600502016040518060a0016040529081600082015481526020016001820180546108de90611898565b80601f016020809104026020016040519081016040528092919081815260200182805461090a90611898565b80156109575780601f1061092c57610100808354040283529160200191610957565b820191906000526020600020905b81548152906001019060200180831161093a57829003601f168201915b5050505050815260200160028201805461097090611898565b80601f016020809104026020016040519081016040528092919081815260200182805461099c90611898565b80156109e95780601f106109be576101008083540402835291602001916109e9565b820191906000526020600020905b8154815290600101906020018083116109cc57829003601f168201915b50505050508152602001600382018054610a0290611898565b80601f0160208091040260200160405190810160405280929190818152602001828054610a2e90611898565b8015610a7b5780601f10610a5057610100808354040283529160200191610a7b565b820191906000526020600020905b815481529060010190602001808311610a5e57829003601f168201915b505050505081526020016004820160009054906101000a900473ffffffffffffffffffffffffffffffffffffffff1673ffffffffffffffffffffffffffffffffffffffff1673ffffffffffffffffffffffffffffffffffffffff168152505092505050610af9565b8080610aee90611751565b915050610861565b50505b92915050565b60006060600060608060008060008973ffffffffffffffffffffffffffffffffffffffff1673ffffffffffffffffffffffffffffffffffffffff168152602001908152602001600020905060005b8180549050811015610e225787828281548110610b6d57610b6c6116f3565b5b90600052602060002090600502016000015403610e0f57818181548110610b9757610b966116f3565b5b906000526020600020906005020160040160009054906101000a900473ffffffffffffffffffffffffffffffffffffffff16828281548110610bdc57610bdb6116f3565b5b9060005260206000209060050201600301838381548110610c0057610bff6116f3565b5b906000526020600020906005020160000154848481548110610c2557610c246116f3565b5b9060005260206000209060050201600101858581548110610c4957610c486116f3565b5b9060005260206000209060050201600201838054610c6690611898565b80601f0160208091040260200160405190810160405280929190818152602001828054610c9290611898565b8015610cdf5780601f10610cb457610100808354040283529160200191610cdf565b820191906000526020600020905b815481529060010190602001808311610cc257829003601f168201915b50505050509350818054610cf290611898565b80601f0160208091040260200160405190810160405280929190818152602001828054610d1e90611898565b8015610d6b5780601f10610d4057610100808354040283529160200191610d6b565b820191906000526020600020905b815481529060010190602001808311610d4e57829003601f168201915b50505050509150808054610d7e90611898565b80601f0160208091040260200160405190810160405280929190818152602001828054610daa90611898565b8015610df75780601f10610dcc57610100808354040283529160200191610df7565b820191906000526020600020905b815481529060010190602001808311610dda57829003601f168201915b50505050509050965096509650965096505050610e25565b8080610e1a90611751565b915050610b4d565b50505b9295509295909350565b828054610e3b90611898565b90600052602060002090601f016020900481019282610e5d5760008555610ea4565b82601f10610e7657805160ff1916838001178555610ea4565b82800160010185558215610ea4579182015b82811115610ea3578251825591602001919060010190610e88565b5b509050610eb19190610efa565b5090565b6040518060a0016040528060008152602001606081526020016060815260200160608152602001600073ffffffffffffffffffffffffffffffffffffffff1681525090565b5b80821115610f13576000816000905550600101610efb565b5090565b6000604051905090565b600080fd5b600080fd5b6000819050919050565b610f3e81610f2b565b8114610f4957600080fd5b50565b600081359050610f5b81610f35565b92915050565b600080fd5b600080fd5b6000601f19601f8301169050919050565b7f4e487b7100000000000000000000000000000000000000000000000000000000600052604160045260246000fd5b610fb482610f6b565b810181811067ffffffffffffffff82111715610fd357610fd2610f7c565b5b80604052505050565b6000610fe6610f17565b9050610ff28282610fab565b919050565b600067ffffffffffffffff82111561101257611011610f7c565b5b61101b82610f6b565b9050602081019050919050565b82818337600083830152505050565b600061104a61104584610ff7565b610fdc565b90508281526020810184848401111561106657611065610f66565b5b611071848285611028565b509392505050565b600082601f83011261108e5761108d610f61565b5b813561109e848260208601611037565b91505092915050565b600073ffffffffffffffffffffffffffffffffffffffff82169050919050565b60006110d2826110a7565b9050919050565b6110e2816110c7565b81146110ed57600080fd5b50565b6000813590506110ff816110d9565b92915050565b600080600080600060a0868803121561112157611120610f21565b5b600061112f88828901610f4c565b955050602086013567ffffffffffffffff8111156111505761114f610f26565b5b61115c88828901611079565b945050604086013567ffffffffffffffff81111561117d5761117c610f26565b5b61118988828901611079565b935050606061119a888289016110f0565b925050608086013567ffffffffffffffff8111156111bb576111ba610f26565b5b6111c788828901611079565b9150509295509295909350565b6111dd81610f2b565b82525050565b60006020820190506111f860008301846111d4565b92915050565b60008060006060848603121561121757611216610f21565b5b600084013567ffffffffffffffff81111561123557611234610f26565b5b61124186828701611079565b935050602084013567ffffffffffffffff81111561126257611261610f26565b5b61126e86828701611079565b925050604084013567ffffffffffffffff81111561128f5761128e610f26565b5b61129b86828701611079565b9150509250925092565b6000602082840312156112bb576112ba610f21565b5b60006112c9848285016110f0565b91505092915050565b600081519050919050565b600082825260208201905092915050565b6000819050602082019050919050565b61130781610f2b565b82525050565b600081519050919050565b600082825260208201905092915050565b60005b8381101561134757808201518184015260208101905061132c565b83811115611356576000848401525b50505050565b60006113678261130d565b6113718185611318565b9350611381818560208601611329565b61138a81610f6b565b840191505092915050565b61139e816110c7565b82525050565b600060a0830160008301516113bc60008601826112fe565b50602083015184820360208601526113d4828261135c565b915050604083015184820360408601526113ee828261135c565b91505060608301518482036060860152611408828261135c565b915050608083015161141d6080860182611395565b508091505092915050565b600061143483836113a4565b905092915050565b6000602082019050919050565b6000611454826112d2565b61145e81856112dd565b935083602082028501611470856112ee565b8060005b858110156114ac578484038952815161148d8582611428565b94506114988361143c565b925060208a01995050600181019050611474565b50829750879550505050505092915050565b600060208201905081810360008301526114d88184611449565b905092915050565b600080604083850312156114f7576114f6610f21565b5b6000611505858286016110f0565b925050602061151685828601610f4c565b9150509250929050565b600060a08301600083015161153860008601826112fe565b5060208301518482036020860152611550828261135c565b9150506040830151848203604086015261156a828261135c565b91505060608301518482036060860152611584828261135c565b91505060808301516115996080860182611395565b508091505092915050565b600060208201905081810360008301526115be8184611520565b905092915050565b6115cf816110c7565b82525050565b600082825260208201905092915050565b60006115f18261130d565b6115fb81856115d5565b935061160b818560208601611329565b61161481610f6b565b840191505092915050565b600060a08201905061163460008301886115c6565b818103602083015261164681876115e6565b905061165560408301866111d4565b818103606083015261166781856115e6565b9050818103608083015261167b81846115e6565b90509695505050505050565b7f4e6f204a6f6220706f73742065786973747320666f7220746869732075736572600082015250565b60006116bd6020836115d5565b91506116c882611687565b602082019050919050565b600060208201905081810360008301526116ec816116b0565b9050919050565b7f4e487b7100000000000000000000000000000000000000000000000000000000600052603260045260246000fd5b7f4e487b7100000000000000000000000000000000000000000000000000000000600052601160045260246000fd5b600061175c82610f2b565b91507fffffffffffffffffffffffffffffffffffffffffffffffffffffffffffffffff820361178e5761178d611722565b5b600182019050919050565b600060a0820190506117ae60008301886111d4565b81810360208301526117c081876115e6565b905081810360408301526117d481866115e6565b90506117e360608301856115c6565b81810360808301526117f581846115e6565b90509695505050505050565b600060a08201905061181660008301886111d4565b818103602083015261182881876115e6565b9050818103604083015261183c81866115e6565b9050818103606083015261185081856115e6565b905061185f60808301846115c6565b9695505050505050565b7f4e487b7100000000000000000000000000000000000000000000000000000000600052602260045260246000fd5b600060028204905060018216806118b057607f821691505b6020821081036118c3576118c2611869565b5b5091905056fea26469706673582212207a727ae9e58736d14aa3ce89399dcd5515eb74724db54bbb90720bddfc22677864736f6c634300080d0033",
  "immutableReferences": {},
  "source": "// SPDX-License-Identifier: MIT\npragma solidity >=0.4.22 <0.9.0;\n\npragma experimental ABIEncoderV2;\n\ncontract JobPost {\n    struct Job {\n        uint256 jobId;\n        string jobTitle;\n        string paymentMethod;\n        string accountId;\n        address account;\n    }\n\n    enum paymentMethods {\n        CASH,\n        DEBIT,\n        CREDIT,\n        CRYPTO\n    }\n\n    event JobPostCreated(\n        uint256 jobId,\n        string jobTitle,\n        string paymentMethod,\n        string accountId,\n        address account\n    );\n\n    event JobPostUpdated(\n        uint256 _jobId,\n        string _jobTitle,\n        string _paymentMethod,\n        address _account,\n        string _accountId\n    );\n\n    // mapping(uint => Job) JobsByIndex;\n    mapping(address => Job[]) JobsByAccount;\n    uint256 public jobCounter = 0;\n\n    constructor() {}\n\n    function newJobPostByAccount(\n        string memory _jobTitle,\n        string memory _paymentMethod,\n        string memory _accountId\n    ) public {\n        jobCounter++;\n        JobsByAccount[msg.sender].push(\n            Job({\n                jobId: jobCounter,\n                jobTitle: _jobTitle,\n                paymentMethod: _paymentMethod,\n                accountId: _accountId,\n                account: msg.sender\n            })\n        );\n\n        emit JobPostCreated(\n            jobCounter,\n            _jobTitle,\n            _paymentMethod,\n            _accountId,\n            msg.sender\n        );\n    }\n\n    function getOneJobPostByAccount2(\n        address _account,\n        uint256 _jobId\n    )\n        public\n        view\n        returns (\n            address account,\n            string memory accountId,\n            uint256 jobId,\n            string memory jobTitle,\n            string memory paymentMethod\n        )\n    {\n        // require(_account <= jobCounter);\n        Job[] storage jobs = JobsByAccount[_account];\n        for (uint256 index = 0; index < jobs.length; index++) {\n            if (jobs[index].jobId == _jobId) {\n                return (\n                    jobs[index].account,\n                    jobs[index].accountId,\n                    jobs[index].jobId,\n                    jobs[index].jobTitle,\n                    jobs[index].paymentMethod\n                );\n            }\n        }\n    }\n\n    function getOneJobPostByAccount(\n        address _account,\n        uint256 _jobId\n    ) public view returns (Job memory job) {\n        // require(_account <= jobCounter);\n        Job[] storage jobs = JobsByAccount[_account];\n        for (uint256 index = 0; index < jobs.length; index++) {\n            if (jobs[index].jobId == _jobId) {\n                return (jobs[index]);\n            }\n        }\n        // return (0,\"\",\"\",0x0);\n    }\n\n    function updateJobPostByAccount(\n        uint256 _jobId,\n        string memory _jobTitle,\n        string memory _paymentMethod,\n        address _account,\n        string memory _accountId\n    ) public {\n        Job[] storage jobs = JobsByAccount[_account];\n        require(_jobId <= jobCounter);\n        // require(jobs, \"This user does not exist\");\n        require(jobs.length > 0, \"No Job post exists for this user\");\n        for (uint256 i = 0; i < jobs.length; i++) {\n            if (jobs[i].jobId == _jobId) {\n                jobs[i].jobTitle = _jobTitle;\n                jobs[i].paymentMethod = _paymentMethod;\n                jobs[i].account = _account;\n                jobs[i].accountId = _accountId;\n            }\n        }\n        emit JobPostUpdated(\n            _jobId,\n            _jobTitle,\n            _paymentMethod,\n            _account,\n            _accountId\n        );\n    }\n\n    function getAllJobsByAccount(\n        address _account\n    ) public view returns (Job[] memory) {\n        Job[] storage jobs = JobsByAccount[_account];\n        // require(jobs.length > 0, \"No Job post exists for this user\");\n        if (jobs.length > 0) {\n            return jobs;\n        } else {\n            Job[] memory emptyJobs;\n            return emptyJobs;\n        }\n    }\n}\n",
  "sourcePath": "/Users/chris/Downloads/Projects/Business/HederaDapp/Open-Meta-Markets-main/app/truffle-project/contracts/JobPost.sol",
  "compiler": {
    "name": "solc",
    "version": "0.8.13+commit.abaa5c0e.Emscripten.clang"
  },
  "schemaVersion": "3.4.8",
  "updatedAt": "2024-04-01T08:16:47.104Z",
  "devdoc": {
    "kind": "dev",
    "methods": {},
    "version": 1
  },
  "userdoc": {
    "kind": "user",
    "methods": {},
    "version": 1
  }
}